{
  "_format": "hh-sol-artifact-1",
  "contractName": "StakingPool",
  "sourceName": "contracts/StakingPlatform.sol",
  "abi": [
    {
      "inputs": [
        {
          "internalType": "address",
          "name": "_factory",
          "type": "address"
        },
        {
          "internalType": "address",
          "name": "_owner",
          "type": "address"
        },
        {
          "internalType": "address",
          "name": "_stakingToken",
          "type": "address"
        },
        {
          "internalType": "uint256",
          "name": "_aprBps",
          "type": "uint256"
        },
        {
          "internalType": "uint256",
          "name": "_endTime",
          "type": "uint256"
        }
      ],
      "stateMutability": "nonpayable",
      "type": "constructor"
    },
    {
      "inputs": [],
      "name": "ECDSAInvalidSignature",
      "type": "error"
    },
    {
      "inputs": [
        {
          "internalType": "uint256",
          "name": "length",
          "type": "uint256"
        }
      ],
      "name": "ECDSAInvalidSignatureLength",
      "type": "error"
    },
    {
      "inputs": [
        {
          "internalType": "bytes32",
          "name": "s",
          "type": "bytes32"
        }
      ],
      "name": "ECDSAInvalidSignatureS",
      "type": "error"
    },
    {
      "inputs": [],
      "name": "ReentrancyGuardReentrantCall",
      "type": "error"
    },
    {
      "inputs": [
        {
          "internalType": "address",
          "name": "token",
          "type": "address"
        }
      ],
      "name": "SafeERC20FailedOperation",
      "type": "error"
    },
    {
      "anonymous": false,
      "inputs": [
        {
          "indexed": false,
          "internalType": "bool",
          "name": "active",
          "type": "bool"
        }
      ],
      "name": "ActiveSet",
      "type": "event"
    },
    {
      "anonymous": false,
      "inputs": [
        {
          "indexed": false,
          "internalType": "uint256",
          "name": "aprBps",
          "type": "uint256"
        }
      ],
      "name": "AprSet",
      "type": "event"
    },
    {
      "anonymous": false,
      "inputs": [
        {
          "indexed": true,
          "internalType": "address",
          "name": "user",
          "type": "address"
        },
        {
          "indexed": false,
          "internalType": "uint256",
          "name": "amount",
          "type": "uint256"
        }
      ],
      "name": "Claimed",
      "type": "event"
    },
    {
      "anonymous": false,
      "inputs": [
        {
          "indexed": true,
          "internalType": "address",
          "name": "from",
          "type": "address"
        },
        {
          "indexed": false,
          "internalType": "uint256",
          "name": "amount",
          "type": "uint256"
        }
      ],
      "name": "Funded",
      "type": "event"
    },
    {
      "anonymous": false,
      "inputs": [
        {
          "indexed": true,
          "internalType": "address",
          "name": "user",
          "type": "address"
        },
        {
          "indexed": false,
          "internalType": "uint256",
          "name": "amount",
          "type": "uint256"
        }
      ],
      "name": "Staked",
      "type": "event"
    },
    {
      "anonymous": false,
      "inputs": [
        {
          "indexed": true,
          "internalType": "address",
          "name": "user",
          "type": "address"
        },
        {
          "indexed": false,
          "internalType": "uint256",
          "name": "amount",
          "type": "uint256"
        }
      ],
      "name": "Unstaked",
      "type": "event"
    },
    {
      "inputs": [],
      "name": "active",
      "outputs": [
        {
          "internalType": "bool",
          "name": "",
          "type": "bool"
        }
      ],
      "stateMutability": "view",
      "type": "function"
    },
    {
      "inputs": [],
      "name": "aprBps",
      "outputs": [
        {
          "internalType": "uint256",
          "name": "",
          "type": "uint256"
        }
      ],
      "stateMutability": "view",
      "type": "function"
    },
    {
      "inputs": [],
      "name": "claim",
      "outputs": [],
      "stateMutability": "nonpayable",
      "type": "function"
    },
    {
      "inputs": [],
      "name": "emergencyWithdraw",
      "outputs": [],
      "stateMutability": "nonpayable",
      "type": "function"
    },
    {
      "inputs": [],
      "name": "endTime",
      "outputs": [
        {
          "internalType": "uint256",
          "name": "",
          "type": "uint256"
        }
      ],
      "stateMutability": "view",
      "type": "function"
    },
    {
      "inputs": [],
      "name": "factory",
      "outputs": [
        {
          "internalType": "contract StakingPlatform",
          "name": "",
          "type": "address"
        }
      ],
      "stateMutability": "view",
      "type": "function"
    },
    {
      "inputs": [
        {
          "internalType": "uint256",
          "name": "amount",
          "type": "uint256"
        }
      ],
      "name": "fundRewards",
      "outputs": [],
      "stateMutability": "nonpayable",
      "type": "function"
    },
    {
      "inputs": [],
      "name": "getPoolStats",
      "outputs": [
        {
          "internalType": "address",
          "name": "_stakingToken",
          "type": "address"
        },
        {
          "internalType": "address",
          "name": "_rewardToken",
          "type": "address"
        },
        {
          "internalType": "uint8",
          "name": "_stakingDecimals",
          "type": "uint8"
        },
        {
          "internalType": "uint8",
          "name": "_rewardDecimals",
          "type": "uint8"
        },
        {
          "internalType": "uint256",
          "name": "_aprBps",
          "type": "uint256"
        },
        {
          "internalType": "bool",
          "name": "_active",
          "type": "bool"
        },
        {
          "internalType": "uint256",
          "name": "_totalStaked",
          "type": "uint256"
        },
        {
          "internalType": "uint256",
          "name": "_totalClaimed",
          "type": "uint256"
        },
        {
          "internalType": "uint256",
          "name": "_rewardReserve",
          "type": "uint256"
        },
        {
          "internalType": "uint256",
          "name": "_endTime",
          "type": "uint256"
        },
        {
          "internalType": "bool",
          "name": "_expired",
          "type": "bool"
        }
      ],
      "stateMutability": "view",
      "type": "function"
    },
    {
      "inputs": [],
      "name": "getRewardAnalysis",
      "outputs": [
        {
          "internalType": "uint256",
          "name": "totalAllocated",
          "type": "uint256"
        },
        {
          "internalType": "uint256",
          "name": "totalDistributed",
          "type": "uint256"
        },
        {
          "internalType": "uint256",
          "name": "remainingRewards",
          "type": "uint256"
        },
        {
          "internalType": "uint256",
          "name": "distributedPercentage",
          "type": "uint256"
        },
        {
          "internalType": "uint256",
          "name": "remainingPercentage",
          "type": "uint256"
        }
      ],
      "stateMutability": "view",
      "type": "function"
    },
    {
      "inputs": [
        {
          "internalType": "address",
          "name": "user",
          "type": "address"
        }
      ],
      "name": "getUserStake",
      "outputs": [
        {
          "internalType": "uint256",
          "name": "amount",
          "type": "uint256"
        },
        {
          "internalType": "uint256",
          "name": "claimable",
          "type": "uint256"
        },
        {
          "internalType": "uint256",
          "name": "claimed",
          "type": "uint256"
        },
        {
          "internalType": "uint256",
          "name": "lastClaimTs",
          "type": "uint256"
        }
      ],
      "stateMutability": "view",
      "type": "function"
    },
    {
      "inputs": [
        {
          "internalType": "uint256",
          "name": "amount",
          "type": "uint256"
        }
      ],
      "name": "initializeRewards",
      "outputs": [],
      "stateMutability": "nonpayable",
      "type": "function"
    },
    {
      "inputs": [
        {
          "internalType": "address",
          "name": "",
          "type": "address"
        }
      ],
      "name": "nonces",
      "outputs": [
        {
          "internalType": "uint256",
          "name": "",
          "type": "uint256"
        }
      ],
      "stateMutability": "view",
      "type": "function"
    },
    {
      "inputs": [],
      "name": "owner",
      "outputs": [
        {
          "internalType": "address",
          "name": "",
          "type": "address"
        }
      ],
      "stateMutability": "view",
      "type": "function"
    },
    {
      "inputs": [],
      "name": "rewardDecimals",
      "outputs": [
        {
          "internalType": "uint8",
          "name": "",
          "type": "uint8"
        }
      ],
      "stateMutability": "view",
      "type": "function"
    },
    {
      "inputs": [],
      "name": "rewardReserve",
      "outputs": [
        {
          "internalType": "uint256",
          "name": "",
          "type": "uint256"
        }
      ],
      "stateMutability": "view",
      "type": "function"
    },
    {
      "inputs": [],
      "name": "rewardToken",
      "outputs": [
        {
          "internalType": "address",
          "name": "",
          "type": "address"
        }
      ],
      "stateMutability": "view",
      "type": "function"
    },
    {
      "inputs": [
        {
          "internalType": "bool",
          "name": "_active",
          "type": "bool"
        }
      ],
      "name": "setActive",
      "outputs": [],
      "stateMutability": "nonpayable",
      "type": "function"
    },
    {
      "inputs": [
        {
          "internalType": "uint256",
          "name": "_aprBps",
          "type": "uint256"
        }
      ],
      "name": "setAprBps",
      "outputs": [],
      "stateMutability": "nonpayable",
      "type": "function"
    },
    {
      "inputs": [
        {
          "internalType": "uint256",
          "name": "amount",
          "type": "uint256"
        }
      ],
      "name": "stake",
      "outputs": [],
      "stateMutability": "nonpayable",
      "type": "function"
    },
    {
      "inputs": [
        {
          "internalType": "uint256",
          "name": "amount",
          "type": "uint256"
        },
        {
          "internalType": "uint256",
          "name": "deadline",
          "type": "uint256"
        },
        {
          "internalType": "uint256",
          "name": "nonce",
          "type": "uint256"
        },
        {
          "internalType": "bytes",
          "name": "signature",
          "type": "bytes"
        }
      ],
      "name": "stakeWithQuote",
      "outputs": [],
      "stateMutability": "nonpayable",
      "type": "function"
    },
    {
      "inputs": [],
      "name": "stakingDecimals",
      "outputs": [
        {
          "internalType": "uint8",
          "name": "",
          "type": "uint8"
        }
      ],
      "stateMutability": "view",
      "type": "function"
    },
    {
      "inputs": [],
      "name": "stakingToken",
      "outputs": [
        {
          "internalType": "address",
          "name": "",
          "type": "address"
        }
      ],
      "stateMutability": "view",
      "type": "function"
    },
    {
      "inputs": [],
      "name": "totalClaimed",
      "outputs": [
        {
          "internalType": "uint256",
          "name": "",
          "type": "uint256"
        }
      ],
      "stateMutability": "view",
      "type": "function"
    },
    {
      "inputs": [],
      "name": "totalStaked",
      "outputs": [
        {
          "internalType": "uint256",
          "name": "",
          "type": "uint256"
        }
      ],
      "stateMutability": "view",
      "type": "function"
    },
    {
      "inputs": [],
      "name": "unstake",
      "outputs": [],
      "stateMutability": "nonpayable",
      "type": "function"
    },
    {
      "inputs": [
        {
          "internalType": "address",
          "name": "",
          "type": "address"
        }
      ],
      "name": "users",
      "outputs": [
        {
          "internalType": "uint256",
          "name": "amount",
          "type": "uint256"
        },
        {
          "internalType": "uint256",
          "name": "pending",
          "type": "uint256"
        },
        {
          "internalType": "uint256",
          "name": "claimed",
          "type": "uint256"
        },
        {
          "internalType": "uint256",
          "name": "lastUpdate",
          "type": "uint256"
        }
      ],
      "stateMutability": "view",
      "type": "function"
    }
  ],
  "bytecode": "0x610160604081815234620002e55760a08262001e3a8038038091620000258285620002ea565b833981010312620002e5576200003b8262000324565b6020916200004b83850162000324565b936200005982820162000324565b9460806060830151920151956000916001835560018060a01b0380961680151580620002d9575b80620002cd575b15620002a3574289111562000275579087929160805260a0528060c0528060e052610100978852600485518097819363313ce56760e01b8352165afa938415620002695781946200021e575b50506101209383855260ff6101409416845261c3508211620001f05750600155600160ff1960025416176002555191611b0093846200033a853960805184818161025801528181610487015281816108f001528181610c9d01528181610da80152818161100d0152611830015260a051848181610511015281816107a2015281816109c10152610a6f015260c0518481816102a70152818161060a015281816108c801528181610b0c01528181610e0c015261117a015260e0518481816102090152818161062e015281816109f901528181610bb20152610e720152518381816105dd01528181610c5d0152818161158e0152818161165f01526116f30152518281816104d0015261065701525181818161067f01526107460152f35b60649083519062461bcd60e51b8252600482015260086024820152670c2e0e45ad0d2ced60c31b6044820152fd5b909193508481813d831162000261575b6200023a8183620002ea565b810103126200025d57519060ff821682036200025a5750913880620000d3565b80fd5b5080fd5b503d6200022e565b508251903d90823e3d90fd5b855162461bcd60e51b8152600481018990526007602482015266656e6454696d6560c81b6044820152606490fd5b855162461bcd60e51b815260048082018a90526024820152637a65726f60e01b6044820152606490fd5b50868316151562000087565b50868216151562000080565b600080fd5b601f909101601f19168101906001600160401b038211908210176200030e57604052565b634e487b7160e01b600052604160045260246000fd5b51906001600160a01b0382168203620002e55756fe608060408181526004918236101561001657600080fd5b600090813560e01c90816302fb0c5e14611348575080631ebe131314610f6057806325ac1df214610f415780632def662014610d35578063314eb4b914610c805780633197cbb614610c455780634e71d92d14610b3b57806372f702f314610af75780637ecebe0014610abd578063817b1cd214610a9e5780638da5cb5b14610a5a57806393707a191461099a578063a694fc3a14610847578063a87430ba146107e7578063acec338a1461076a578063b60f75d81461072c578063bbadc93a146106d2578063bbb85188146105af578063c06e9be2146104f4578063c11f5344146104b6578063c45a015514610472578063cab64bcd14610453578063d54ad2a114610435578063db2e21bc1461023c578063f7c618c1146101f45763fd17a82f1461014257600080fd5b346101f157806003193601126101f1578254906005546101628184611442565b93846101885760a0955082935b8151958652602086015284015260608301526080820152f35b6127108085028581048214861517156101de57866101a5916114f4565b938184029184830414841517156101cb575060a09650856101c5916114f4565b9361016f565b634e487b7160e01b815260118852602490fd5b634e487b7160e01b855260118852602485fd5b80fd5b509034610238578160031936011261023857517f00000000000000000000000000000000000000000000000000000000000000006001600160a01b03168152602090f35b5080fd5b5091346104315782600319360112610431576001600160a01b037f0000000000000000000000000000000000000000000000000000000000000000811690610285338314611472565b60ff60025416156103fa5783516370a0823160e01b81523081850152602093917f000000000000000000000000000000000000000000000000000000000000000016908481602481855afa9081156103f05787916103bf575b5080610315575b86600080516020611aab83398151915286888360055560ff196002541660025561030d611820565b51838152a180f35b61032460035460055490611442565b90818111610333575b506102e5565b859161033e91611465565b93865193848092638da5cb5b60e01b82525afa9182156103b55791600080516020611aab83398151915295939161037c938892610386575b506118ad565b913880808061032d565b6103a7919250863d88116103ae575b61039f81836113fc565b81019061141e565b9038610376565b503d610395565b85513d88823e3d90fd5b90508481813d83116103e9575b6103d681836113fc565b810103126103e55751386102de565b8680fd5b503d6103cc565b86513d89823e3d90fd5b835162461bcd60e51b81526020818501526011602482015270616c72656164792d656d657267656e637960781b6044820152606490fd5b8280fd5b50913461043157826003193601126104315760209250549051908152f35b5090346102385781600319360112610238576020906005549051908152f35b509034610238578160031936011261023857517f00000000000000000000000000000000000000000000000000000000000000006001600160a01b03168152602090f35b5090346102385781600319360112610238576020905160ff7f0000000000000000000000000000000000000000000000000000000000000000168152f35b509190346104315760203660031901126104315781359161053f337f00000000000000000000000000000000000000000000000000000000000000006001600160a01b0316146114ad565b61c35083116105825750816020917f255ab19e375a5b5dc7b35b2afa98fce75881b45b93ed72721caab22e3ce7f9899360015561057a611820565b51908152a180f35b6020606492519162461bcd60e51b835282015260086024820152670c2e0e45ad0d2ced60c31b6044820152fd5b50913461043157826003193601126104315761016092506001549060ff6002541690600354905490600554927f00000000000000000000000000000000000000000000000000000000000000009486519660018060a01b03807f00000000000000000000000000000000000000000000000000000000000000001689527f000000000000000000000000000000000000000000000000000000000000000016602089015260ff7f0000000000000000000000000000000000000000000000000000000000000000169088015260ff7f00000000000000000000000000000000000000000000000000000000000000001660608801526080870152151560a086015260c085015260e084015261010083015280610120830152421015610140820152f35b5091346104315760203660031901126104315735916001600160a01b03831683036101f1575061070461072892611514565b93519283526020830191909152604082015260608101919091529081906080820190565b0390f35b5090346102385781600319360112610238576020905160ff7f0000000000000000000000000000000000000000000000000000000000000000168152f35b50913461043157602036600319011261043157359081151580920361043157600080516020611aab833981519152916020916107d0337f00000000000000000000000000000000000000000000000000000000000000006001600160a01b0316146114ad565b60ff196002541660ff83161760025561057a611820565b50913461043157602036600319011261043157356001600160a01b03811690819003610431578252600660209081529181902080546001820154600283015460039093015493519182529381019390935260408301526060820152608090f35b50919034610431576020366003190112610431578282359261086761162e565b61086f611651565b61087d60ff60025416611369565b6108888415156113a0565b610891336116ad565b33825260066020528282206108a7858254611442565b90556108b584600354611442565b6003556001600160a01b036108ee8530337f000000000000000000000000000000000000000000000000000000000000000085166117c5565b7f00000000000000000000000000000000000000000000000000000000000000001690813b1561043157829160248392865194859384926331a93c7f60e01b845233908401525af180156109905761097c575b505061094b611820565b519081527f9e71bc8eea02a63969f509818f2dafb9254532904319f9dbda79b67bd34a5f3d60203392a26001815580f35b610985906113d2565b610431578238610941565b83513d84823e3d90fd5b509134610431576020366003190112610431573590610a1e826001600160a01b036109e8337f00000000000000000000000000000000000000000000000000000000000000008316146114ad565b6109f38215156113a0565b309033907f0000000000000000000000000000000000000000000000000000000000000000166117c5565b610a2a82600554611442565b600555519081527f5af8184bef8e4b45eb9f6ed7734d04da38ced226495548f46e0c8ff8d7d9a52460203392a280f35b509034610238578160031936011261023857517f00000000000000000000000000000000000000000000000000000000000000006001600160a01b03168152602090f35b5090346102385781600319360112610238576020906003549051908152f35b50913461043157602036600319011261043157356001600160a01b0381169081900361043157828291602094526007845220549051908152f35b509034610238578160031936011261023857517f00000000000000000000000000000000000000000000000000000000000000006001600160a01b03168152602090f35b50919034610431578260031936011261043157610b5661162e565b610b5f336116ad565b610b67611651565b338352600660205260018184200154918215610c18573384526006602052600282852085600182015501610b9c848254611442565b9055610ba9838254611442565b9055610bdf82337f00000000000000000000000000000000000000000000000000000000000000006001600160a01b03166118ad565b610be7611820565b519081527fd8138f8a3f377c5259ca548e70e4c2de94f129f5a11036a15b69513cba2b426a60203392a26001815580f35b6020606492519162461bcd60e51b835282015260086024820152676e6f2d636c61696d60c01b6044820152fd5b509034610238578160031936011261023857602090517f00000000000000000000000000000000000000000000000000000000000000008152f35b5091903461043157602036600319011261043157813591610ccb337f00000000000000000000000000000000000000000000000000000000000000006001600160a01b031614611472565b600554610d04575081600555519081527f5af8184bef8e4b45eb9f6ed7734d04da38ced226495548f46e0c8ff8d7d9a52460203292a280f35b6020606492519162461bcd60e51b8352820152600c60248201526b185b1c9958591e4b5a5b9a5d60a21b6044820152fd5b50919034610431578260031936011261043157610d5061162e565b3383526006602052808320805415610f1357610d6b336116ad565b805492600182019185835493818355558215159081610efd575b5080610d9386600354611465565b600355610eeb575b6001600160a01b039186907f0000000000000000000000000000000000000000000000000000000000000000841690813b15610431578291602483928951948593849263050460a160e51b845233908401525af18015610ee157610ec9575b5050610e04611820565b610e318533847f0000000000000000000000000000000000000000000000000000000000000000166118ad565b610e69575b5050519081527f0f5bb82176feb1b5e747e28471aa92156a04d9f3ab9f45f28e2d704232b93f7560203392a26001815580f35b81610e979133907f0000000000000000000000000000000000000000000000000000000000000000166118ad565b81519081527fd8138f8a3f377c5259ca548e70e4c2de94f129f5a11036a15b69513cba2b426a60203392a23880610e36565b610ed2906113d2565b610edd578538610dfa565b8580fd5b86513d84823e3d90fd5b610ef6838354611442565b8255610d9b565b600201610f0b848254611442565b905538610d85565b815162461bcd60e51b815260208185015260086024820152676e6f2d7374616b6560c01b6044820152606490fd5b5090346102385781600319360112610238576020906001549051908152f35b5091346104315760803660031901126104315780359167ffffffffffffffff91606435602480356044358684116113445736602385011215611344578385013596808811611340573684898701011161134057610fbb61162e565b610fc3611651565b610fd160ff60025416611369565b610fdc8915156113a0565b82421161131457338a5260209760078952878b205483036112ea57875163f413bdb360e01b81526001600160a01b037f00000000000000000000000000000000000000000000000000000000000000008116979095918d908c818c818d5afa9182156112df579088926112c2575b5016948515611294578c908b51938d8501927f39aec93bfa2241767ecab229a67057ef7c6d7db40416a3108e38a9474442977184528d33908701526060860152608085015260a084015260a0835260c083019483861090861117611282578d60e085611111958f94978f8a9761111a9a8f929c8f9d52845190207f19457468657265756d205369676e6564204d6573736167653a0a3332000000008852601c52611101603c882098601f19601f860116018a6113fc565b82895201848301370101526118fd565b90929192611939565b160361125a57338852600786528488208054600019811461124857899594939261119f9260018b9301905561114e336116ad565b33875260068952878720611163838254611442565b905561117182600354611442565b600355309033907f0000000000000000000000000000000000000000000000000000000000000000166117c5565b813b15611244578392855194859384926331a93c7f60e01b845233908401525af1801561123a57611205575b50907f9e71bc8eea02a63969f509818f2dafb9254532904319f9dbda79b67bd34a5f3d916111f7611820565b519283523392a26001815580f35b936112327f9e71bc8eea02a63969f509818f2dafb9254532904319f9dbda79b67bd34a5f3d9392956113d2565b9390916111cb565b82513d87823e3d90fd5b8380fd5b634e487b7160e01b8a5260118652838afd5b845162461bcd60e51b81528085018790526003818401526273696760e81b6044820152606490fd5b634e487b7160e01b8e5260418a52878efd5b8a5162461bcd60e51b8152808b018d90526009818a015268373796b9b4b3b732b960b91b6044820152606490fd5b6112d991508d803d106103ae5761039f81836113fc565b3861104a565b8c51903d90823e3d90fd5b875162461bcd60e51b81528088018a9052600581870152646e6f6e636560d81b6044820152606490fd5b865162461bcd60e51b815260208188015260078186015266195e1c1a5c995960ca1b6044820152606490fd5b8980fd5b8880fd5b90503461023857816003193601126102385760209060ff6002541615158152f35b1561137057565b60405162461bcd60e51b8152602060048201526008602482015267696e61637469766560c01b6044820152606490fd5b156113a757565b606460405162461bcd60e51b81526020600482015260046024820152637a65726f60e01b6044820152fd5b67ffffffffffffffff81116113e657604052565b634e487b7160e01b600052604160045260246000fd5b90601f8019910116810190811067ffffffffffffffff8211176113e657604052565b9081602091031261143d57516001600160a01b038116810361143d5790565b600080fd5b9190820180921161144f57565b634e487b7160e01b600052601160045260246000fd5b9190820391821161144f57565b1561147957565b60405162461bcd60e51b815260206004820152600c60248201526b6f6e6c792d666163746f727960a01b6044820152606490fd5b156114b457565b60405162461bcd60e51b815260206004820152600560248201526437bbb732b960d91b6044820152606490fd5b8181029291811591840414171561144f57565b81156114fe570490565b634e487b7160e01b600052601260045260246000fd5b60018060a01b031660005260066020526040600020604051916080830183811067ffffffffffffffff8211176113e657604052815490818452600183015493602081019085825260036002860154958660408401520154806060830152849686829683158015611626575b8015611619575b61160c5750507f000000000000000000000000000000000000000000000000000000000000000080421160001461160457905b828211156115fa57506115f593926115e86115dd64496cebb800946115ed94611465565b9151600154906114e1565b6114e1565b049051611442565b929190565b9695949350505050565b5042906115b9565b9850909650945092915050565b5060ff6002541615611586565b50801561157f565b60026000541461163f576002600055565b604051633ee5aeb560e01b8152600490fd5b60025460ff8116156116aa577f00000000000000000000000000000000000000000000000000000000000000004210156116885750565b60ff1916600255600080516020611aab833981519152602060405160008152a1565b50565b60018060a01b0316600052600660205260406000206003810190815480156117845760ff600254161561178457815480156117bd576116ec8242611465565b156117b7577f00000000000000000000000000000000000000000000000000000000000000008042116000146117af57905b828211156117a8576115e861173c64496cebb8009461174694611465565b91600154906114e1565b04906005548281101560001461177c5750906001611774920161176a828254611442565b9055600554611465565b600555429055565b80925061178b575b5050429055565b600161179a9101918254611442565b905560006005553880611784565b5050505050565b50429061171e565b50505050565b505050429055565b6040516323b872dd60e01b60208201526001600160a01b03928316602482015292909116604483015260648083019390935291815260a081019181831067ffffffffffffffff8411176113e65761181e926040526119be565b565b60035460045460025460ff1691907f00000000000000000000000000000000000000000000000000000000000000006001600160a01b0316803b1561143d57600092836064926040519687958694633d7c653f60e11b865260048601526024850152151560448401525af180156118a1576118985750565b61181e906113d2565b6040513d6000823e3d90fd5b60405163a9059cbb60e01b60208201526001600160a01b039092166024830152604480830193909352918152608081019167ffffffffffffffff8311828410176113e65761181e926040526119be565b815191906041830361192e5761192792506020820151906060604084015193015160001a90611a1a565b9192909190565b505060009160029190565b60048110156119a8578061194b575050565b600181036119655760405163f645eedf60e01b8152600490fd5b600281036119865760405163fce698f760e01b815260048101839052602490fd5b6003146119905750565b602490604051906335e2f38360e21b82526004820152fd5b634e487b7160e01b600052602160045260246000fd5b906000602091828151910182855af1156118a1576000513d611a1157506001600160a01b0381163b155b6119ef5750565b604051635274afe760e01b81526001600160a01b039091166004820152602490fd5b600114156119e8565b91907f7fffffffffffffffffffffffffffffff5d576e7357a4501ddfe92f46681b20a08411611a9e57926020929160ff608095604051948552168484015260408301526060820152600092839182805260015afa15611a925780516001600160a01b03811615611a8957918190565b50809160019190565b604051903d90823e3d90fd5b5050506000916003919056fe73c72e6316305d5331524911633518964ce9a6074030dbe657e4d2b8a5e6685aa26469706673582212209f3c3789c04e5e557c28f6b340d9a1ddcf1aa1f00581cb9837784e177983d99b64736f6c63430008180033",
  "linkReferences": {},
  "deployedLinkReferences": {}
}