{
  "_format": "hh-sol-artifact-1",
  "contractName": "VestingSale",
  "sourceName": "contracts/VestingSalePlatform.sol",
  "abi": [
    {
      "inputs": [
        {
          "internalType": "address",
          "name": "_factory",
          "type": "address"
        },
        {
          "internalType": "address",
          "name": "_projectOwner",
          "type": "address"
        },
        {
          "internalType": "address",
          "name": "_token",
          "type": "address"
        },
        {
          "internalType": "enum PaymentCurrency",
          "name": "_currency",
          "type": "uint8"
        },
        {
          "internalType": "uint256",
          "name": "_startTime",
          "type": "uint256"
        },
        {
          "internalType": "uint256",
          "name": "_endTime",
          "type": "uint256"
        },
        {
          "internalType": "uint256",
          "name": "_vestingDuration",
          "type": "uint256"
        },
        {
          "internalType": "uint256",
          "name": "_hardCap",
          "type": "uint256"
        },
        {
          "internalType": "uint256",
          "name": "_discount",
          "type": "uint256"
        }
      ],
      "stateMutability": "nonpayable",
      "type": "constructor"
    },
    {
      "inputs": [],
      "name": "ECDSAInvalidSignature",
      "type": "error"
    },
    {
      "inputs": [
        {
          "internalType": "uint256",
          "name": "length",
          "type": "uint256"
        }
      ],
      "name": "ECDSAInvalidSignatureLength",
      "type": "error"
    },
    {
      "inputs": [
        {
          "internalType": "bytes32",
          "name": "s",
          "type": "bytes32"
        }
      ],
      "name": "ECDSAInvalidSignatureS",
      "type": "error"
    },
    {
      "inputs": [],
      "name": "ReentrancyGuardReentrantCall",
      "type": "error"
    },
    {
      "inputs": [
        {
          "internalType": "address",
          "name": "token",
          "type": "address"
        }
      ],
      "name": "SafeERC20FailedOperation",
      "type": "error"
    },
    {
      "anonymous": false,
      "inputs": [
        {
          "indexed": true,
          "internalType": "address",
          "name": "buyer",
          "type": "address"
        },
        {
          "indexed": false,
          "internalType": "uint256",
          "name": "payAmount",
          "type": "uint256"
        },
        {
          "indexed": false,
          "internalType": "uint256",
          "name": "tokenAmount",
          "type": "uint256"
        }
      ],
      "name": "Bought",
      "type": "event"
    },
    {
      "anonymous": false,
      "inputs": [
        {
          "indexed": true,
          "internalType": "address",
          "name": "buyer",
          "type": "address"
        },
        {
          "indexed": false,
          "internalType": "uint256",
          "name": "amount",
          "type": "uint256"
        }
      ],
      "name": "Claimed",
      "type": "event"
    },
    {
      "anonymous": false,
      "inputs": [
        {
          "indexed": false,
          "internalType": "uint256",
          "name": "when",
          "type": "uint256"
        }
      ],
      "name": "EndedEarly",
      "type": "event"
    },
    {
      "anonymous": false,
      "inputs": [
        {
          "indexed": true,
          "internalType": "address",
          "name": "to",
          "type": "address"
        },
        {
          "indexed": false,
          "internalType": "uint256",
          "name": "amountAfterFee",
          "type": "uint256"
        },
        {
          "indexed": false,
          "internalType": "uint256",
          "name": "fee",
          "type": "uint256"
        }
      ],
      "name": "ProceedsWithdrawn",
      "type": "event"
    },
    {
      "stateMutability": "payable",
      "type": "fallback"
    },
    {
      "inputs": [
        {
          "internalType": "address",
          "name": "paymentToken",
          "type": "address"
        },
        {
          "internalType": "uint256",
          "name": "paymentAmount",
          "type": "uint256"
        },
        {
          "internalType": "uint256",
          "name": "tokensOut",
          "type": "uint256"
        },
        {
          "internalType": "uint256",
          "name": "deadline",
          "type": "uint256"
        },
        {
          "internalType": "uint256",
          "name": "nonce",
          "type": "uint256"
        },
        {
          "internalType": "bytes",
          "name": "signature",
          "type": "bytes"
        }
      ],
      "name": "buyWithQuote",
      "outputs": [],
      "stateMutability": "payable",
      "type": "function"
    },
    {
      "inputs": [
        {
          "internalType": "address",
          "name": "",
          "type": "address"
        }
      ],
      "name": "buyers",
      "outputs": [
        {
          "internalType": "uint256",
          "name": "amount",
          "type": "uint256"
        },
        {
          "internalType": "uint256",
          "name": "claimed",
          "type": "uint256"
        },
        {
          "internalType": "bool",
          "name": "participated",
          "type": "bool"
        }
      ],
      "stateMutability": "view",
      "type": "function"
    },
    {
      "inputs": [],
      "name": "buyersCount",
      "outputs": [
        {
          "internalType": "uint256",
          "name": "",
          "type": "uint256"
        }
      ],
      "stateMutability": "view",
      "type": "function"
    },
    {
      "inputs": [],
      "name": "claim",
      "outputs": [],
      "stateMutability": "nonpayable",
      "type": "function"
    },
    {
      "inputs": [
        {
          "internalType": "address",
          "name": "user",
          "type": "address"
        }
      ],
      "name": "claimable",
      "outputs": [
        {
          "internalType": "uint256",
          "name": "",
          "type": "uint256"
        }
      ],
      "stateMutability": "view",
      "type": "function"
    },
    {
      "inputs": [],
      "name": "currency",
      "outputs": [
        {
          "internalType": "enum PaymentCurrency",
          "name": "",
          "type": "uint8"
        }
      ],
      "stateMutability": "view",
      "type": "function"
    },
    {
      "inputs": [],
      "name": "discount",
      "outputs": [
        {
          "internalType": "uint256",
          "name": "",
          "type": "uint256"
        }
      ],
      "stateMutability": "view",
      "type": "function"
    },
    {
      "inputs": [
        {
          "internalType": "address",
          "name": "erc20",
          "type": "address"
        },
        {
          "internalType": "address",
          "name": "to",
          "type": "address"
        },
        {
          "internalType": "uint256",
          "name": "amount",
          "type": "uint256"
        }
      ],
      "name": "emergencyWithdraw",
      "outputs": [],
      "stateMutability": "nonpayable",
      "type": "function"
    },
    {
      "inputs": [
        {
          "internalType": "address",
          "name": "to",
          "type": "address"
        },
        {
          "internalType": "uint256",
          "name": "amount",
          "type": "uint256"
        }
      ],
      "name": "emergencyWithdrawETH",
      "outputs": [],
      "stateMutability": "nonpayable",
      "type": "function"
    },
    {
      "inputs": [],
      "name": "endTime",
      "outputs": [
        {
          "internalType": "uint256",
          "name": "",
          "type": "uint256"
        }
      ],
      "stateMutability": "view",
      "type": "function"
    },
    {
      "inputs": [],
      "name": "endedEarly",
      "outputs": [
        {
          "internalType": "bool",
          "name": "",
          "type": "bool"
        }
      ],
      "stateMutability": "view",
      "type": "function"
    },
    {
      "inputs": [],
      "name": "factory",
      "outputs": [
        {
          "internalType": "contract VestingSalePlatform",
          "name": "",
          "type": "address"
        }
      ],
      "stateMutability": "view",
      "type": "function"
    },
    {
      "inputs": [
        {
          "internalType": "address",
          "name": "user",
          "type": "address"
        }
      ],
      "name": "getBuyerInfo",
      "outputs": [
        {
          "components": [
            {
              "internalType": "address",
              "name": "saleAddress",
              "type": "address"
            },
            {
              "internalType": "uint256",
              "name": "amount",
              "type": "uint256"
            },
            {
              "internalType": "uint256",
              "name": "claimed",
              "type": "uint256"
            },
            {
              "internalType": "bool",
              "name": "participated",
              "type": "bool"
            }
          ],
          "internalType": "struct PurchaseInfo",
          "name": "info",
          "type": "tuple"
        },
        {
          "internalType": "uint256",
          "name": "pending",
          "type": "uint256"
        }
      ],
      "stateMutability": "view",
      "type": "function"
    },
    {
      "inputs": [],
      "name": "getRequiredTokenBalance",
      "outputs": [
        {
          "internalType": "uint256",
          "name": "",
          "type": "uint256"
        }
      ],
      "stateMutability": "view",
      "type": "function"
    },
    {
      "inputs": [],
      "name": "hardCap",
      "outputs": [
        {
          "internalType": "uint256",
          "name": "",
          "type": "uint256"
        }
      ],
      "stateMutability": "view",
      "type": "function"
    },
    {
      "inputs": [],
      "name": "hasEnded",
      "outputs": [
        {
          "internalType": "bool",
          "name": "",
          "type": "bool"
        }
      ],
      "stateMutability": "view",
      "type": "function"
    },
    {
      "inputs": [],
      "name": "isActive",
      "outputs": [
        {
          "internalType": "bool",
          "name": "",
          "type": "bool"
        }
      ],
      "stateMutability": "view",
      "type": "function"
    },
    {
      "inputs": [],
      "name": "proceedsWithdrawn",
      "outputs": [
        {
          "internalType": "bool",
          "name": "",
          "type": "bool"
        }
      ],
      "stateMutability": "view",
      "type": "function"
    },
    {
      "inputs": [],
      "name": "projectOwner",
      "outputs": [
        {
          "internalType": "address",
          "name": "",
          "type": "address"
        }
      ],
      "stateMutability": "view",
      "type": "function"
    },
    {
      "inputs": [],
      "name": "soldTokens",
      "outputs": [
        {
          "internalType": "uint256",
          "name": "",
          "type": "uint256"
        }
      ],
      "stateMutability": "view",
      "type": "function"
    },
    {
      "inputs": [],
      "name": "startTime",
      "outputs": [
        {
          "internalType": "uint256",
          "name": "",
          "type": "uint256"
        }
      ],
      "stateMutability": "view",
      "type": "function"
    },
    {
      "inputs": [],
      "name": "token",
      "outputs": [
        {
          "internalType": "address",
          "name": "",
          "type": "address"
        }
      ],
      "stateMutability": "view",
      "type": "function"
    },
    {
      "inputs": [],
      "name": "totalClaimed",
      "outputs": [
        {
          "internalType": "uint256",
          "name": "",
          "type": "uint256"
        }
      ],
      "stateMutability": "view",
      "type": "function"
    },
    {
      "inputs": [
        {
          "internalType": "address",
          "name": "",
          "type": "address"
        }
      ],
      "name": "totalRaisedERC20",
      "outputs": [
        {
          "internalType": "uint256",
          "name": "",
          "type": "uint256"
        }
      ],
      "stateMutability": "view",
      "type": "function"
    },
    {
      "inputs": [],
      "name": "totalRaisedNative",
      "outputs": [
        {
          "internalType": "uint256",
          "name": "",
          "type": "uint256"
        }
      ],
      "stateMutability": "view",
      "type": "function"
    },
    {
      "inputs": [
        {
          "internalType": "address",
          "name": "",
          "type": "address"
        }
      ],
      "name": "userNonces",
      "outputs": [
        {
          "internalType": "uint256",
          "name": "",
          "type": "uint256"
        }
      ],
      "stateMutability": "view",
      "type": "function"
    },
    {
      "inputs": [
        {
          "internalType": "address",
          "name": "user",
          "type": "address"
        }
      ],
      "name": "vestedAmount",
      "outputs": [
        {
          "internalType": "uint256",
          "name": "",
          "type": "uint256"
        }
      ],
      "stateMutability": "view",
      "type": "function"
    },
    {
      "inputs": [],
      "name": "vestingDuration",
      "outputs": [
        {
          "internalType": "uint256",
          "name": "",
          "type": "uint256"
        }
      ],
      "stateMutability": "view",
      "type": "function"
    },
    {
      "inputs": [],
      "name": "vestingStart",
      "outputs": [
        {
          "internalType": "uint256",
          "name": "",
          "type": "uint256"
        }
      ],
      "stateMutability": "view",
      "type": "function"
    },
    {
      "inputs": [],
      "name": "withdrawProceeds",
      "outputs": [],
      "stateMutability": "nonpayable",
      "type": "function"
    },
    {
      "inputs": [
        {
          "internalType": "address",
          "name": "to",
          "type": "address"
        }
      ],
      "name": "withdrawUnsoldTokens",
      "outputs": [],
      "stateMutability": "nonpayable",
      "type": "function"
    },
    {
      "stateMutability": "payable",
      "type": "receive"
    }
  ],
  "bytecode": "0x6101603462000232576200235c38819003601f8101601f191683016001600160401b03811184821017620002375783928291604052833961012091829181010312620002325762000050826200024d565b6200005e602084016200024d565b6200006c604085016200024d565b606085015160038110156200023257608086015160a08701519160c08801519360e089015195610100809a015197600160005560018060a01b0380911690811515908162000225575b8162000218575b5015620001ed5760805260a05260c05260e05260015560025584528252610140908152604051916120f9938462000263853960805184818161025d015281816103800152818161042e0152818161067301528181610d770152818161105f01528181611259015281816112b601528181611379015281816113be015281816115170152818161155f01528181611597015281816115dc015281816117e70152611900015260a051848181610491015281816106080152610b3f015260c05184818161018d01528181610b800152610d4f015260e0518481816102b3015281816106ae01528181610fe10152818161100901528181611221015281816117ac01526118c7015251838181611ae50152611c9a0152518281816101d7015281816111b9015261141001525181610cab0152f35b606460405162461bcd60e51b81526020600482015260046024820152637a65726f60e01b6044820152fd5b90508316151538620000bc565b83811615159150620000b5565b600080fd5b634e487b7160e01b600052604160045260246000fd5b51906001600160a01b0382168203620002325756fe608080604052600436101561001a575b50361561001857005b005b600090813560e01c9081631514617e14611ace5750806322f3e2d414611ab35780632377e0c114610f22578063254800d414610f075780632f7801f414610ece5780633197cbb614610eb0578063384711cc14610e8c578063402914f514610e685780634809f93e14610e4a5780634e71d92d14610cec5780635ed9ebfc14610cce5780636b6f4a9d14610c9357806372f57f1f14610b1557806378e9792514610af757806386a3175714610ad157806389b22f5814610aa75780639038e693146105e457806397a993aa1461058e5780639d03ade9146104c0578063a4475ce41461047b578063ba49a08c1461045d578063c45a015514610418578063d54ad2a1146103fa578063d79e856714610353578063e09f26b51461031a578063e4514c5e146102f7578063e5a6b10f1461029d578063e63ea4081461021f578063ecb70fb7146101fa578063fb86a404146101bf5763fc0c546a0361000f57346101bc57806003193601126101bc576040517f00000000000000000000000000000000000000000000000000000000000000006001600160a01b03168152602090f35b80fd5b50346101bc57806003193601126101bc5760206040517f00000000000000000000000000000000000000000000000000000000000000008152f35b50346101bc57806003193601126101bc576020610215611e8b565b6040519015158152f35b50346101bc5760603660031901126101bc57610239611b08565b6001600160a01b0360243581811692918382036102985761028b61029594610284837f0000000000000000000000000000000000000000000000000000000000000000163314611e50565b1515611dee565b6044359216611ec7565b80f35b600080fd5b50346101bc57806003193601126101bc576040517f000000000000000000000000000000000000000000000000000000000000000060038110156102e357602092508152f35b634e487b7160e01b83526021600452602483fd5b50346101bc57806003193601126101bc57602060ff600354166040519015158152f35b50346101bc5760203660031901126101bc576020906040906001600160a01b03610342611b08565b168152600883522054604051908152f35b50346101bc5760403660031901126101bc5780808080610371611b08565b6001600160a01b03906103a7337f0000000000000000000000000000000000000000000000000000000000000000841614611e50565b166103b3811515611dee565b602435905af16103c1611e20565b50156103ca5780f35b60405162461bcd60e51b815260206004820152600860248201526732ba3416bc3332b960c11b6044820152606490fd5b50346101bc57806003193601126101bc576020600654604051908152f35b50346101bc57806003193601126101bc576040517f00000000000000000000000000000000000000000000000000000000000000006001600160a01b03168152602090f35b50346101bc57806003193601126101bc576020600554604051908152f35b50346101bc57806003193601126101bc576040517f00000000000000000000000000000000000000000000000000000000000000006001600160a01b03168152602090f35b50346101bc5760208060031936011261058a5760a09160406104e0611b08565b9282606083516104ef81611b5c565b82815282848201528285820152015281600180871b03938486168152600983522090825161051c81611b78565b82549081815260ff60026001860154958686850152015416151594859101526105676040519661054b88611b5c565b3088528388019283526040880194855260608801958652611d1b565b946040519651168652519085015251604084015251151560608301526080820152f35b5080fd5b50346101bc5760203660031901126101bc576060906040906001600160a01b036105b6611b08565b16815260096020522080549060ff600260018301549201541690604051928352602083015215156040820152f35b50346101bc57806003193601126101bc576105fd611ea4565b6001600160a01b03907f000000000000000000000000000000000000000000000000000000000000000082811690610636338314611d82565b610646610641611e8b565b611db6565b60035460ff8160081c16610a7c5761ff001916610100176003556040516361d027b360e01b8152906020907f00000000000000000000000000000000000000000000000000000000000000008616908284600481855afa938415610a71578694610a52575b507f00000000000000000000000000000000000000000000000000000000000000006003811015610a3e578061085057505047606481028181046064148215171561083c579086976127106107069798930496878093611c2c565b95826107ec575b50505080808086895af161071f611e20565b50156107bc578086913b1561058a5781809160446040518094819362fa5f3760e41b83528960048401528a60248401525af180156107b157610795575b5050907f7150ca1feaa3b1ac5b0e504dd0c6ebf56f6022fce6a7dd0a678ffd04ebafe726926040928351928352820152a25b6001815580f35b6107a190939293611b48565b6107ad5790843861075c565b8480fd5b6040513d84823e3d90fd5b60405162461bcd60e51b81526004810183905260086024820152673732ba16bc3332b960c11b6044820152606490fd5b839283928392165af16107fd611e20565b501561080c578584388061070d565b60405162461bcd60e51b81526004810183905260086024820152673332b296bc3332b960c11b6044820152606490fd5b634e487b7160e01b87526011600452602487fd5b959694959094906001036109f857604051632f48ab7d60e01b81528381600481865afa9081156109c05788916109cb575b505b1692604051946370a0823160e01b86523060048701528386602481885afa9586156109c0578896610991575b50606486028681046064148715171561097d57916108e9916108d86127108b9695048099611c2c565b968792898061096c575b5050611ec7565b803b1561058a5781809160446040518094819362fa5f3760e41b83528960048401528a60248401525af180156107b157610954575b5050907f7150ca1feaa3b1ac5b0e504dd0c6ebf56f6022fce6a7dd0a678ffd04ebafe726926040928351928352820152a261078e565b61096090939293611b48565b6107ad5790843861091e565b6109769183611ec7565b38896108e2565b634e487b7160e01b89526011600452602489fd5b9095508381813d83116109b9575b6109a98183611b94565b81010312610298575194386108af565b503d61099f565b6040513d8a823e3d90fd5b6109eb9150843d86116109f1575b6109e38183611b94565b810190611bb6565b38610881565b503d6109d9565b604051634504ffb160e01b81528381600481865afa9081156109c0578891610a21575b50610883565b610a389150843d86116109f1576109e38183611b94565b38610a1b565b634e487b7160e01b87526021600452602487fd5b610a6a919450833d85116109f1576109e38183611b94565b92386106ab565b6040513d88823e3d90fd5b606460405162461bcd60e51b8152602060048201526004602482015263646f6e6560e01b6044820152fd5b50346101bc57806003193601126101bc576020610ac960045460065490611c2c565b604051908152f35b50346101bc57806003193601126101bc57602060ff60035460081c166040519015158152f35b50346101bc57806003193601126101bc576020600154604051908152f35b50346101bc57602090816003193601126101bc57610b31611b08565b6001600160a01b03610b66337f0000000000000000000000000000000000000000000000000000000000000000831614611d82565b610b71610641611e8b565b610b7e8183161515611dee565b7f000000000000000000000000000000000000000000000000000000000000000016906040516370a0823160e01b81523060048201528481602481865afa908115610c88578491610c5b575b50610bda60045460065490611c2c565b9081811115610c305790610bed91611c2c565b918215610bff57610295939450611ec7565b60405162461bcd60e51b81526004810186905260096024820152686e6f2d65786365737360b81b6044820152606490fd5b60405162461bcd60e51b815260048082018890526024820152636e6f6e6560e01b6044820152606490fd5b90508481813d8311610c81575b610c728183611b94565b81010312610298575138610bca565b503d610c68565b6040513d86823e3d90fd5b50346101bc57806003193601126101bc5760206040517f00000000000000000000000000000000000000000000000000000000000000008152f35b50346101bc57806003193601126101bc576020600454604051908152f35b50346101bc57806003193601126101bc57610d05611ea4565b610d0e33611d1b565b8015610e1a57338252600960205260016040832001610d2e828254611bf1565b9055610d3c81600654611bf1565b600655816001600160a01b03610d7583337f00000000000000000000000000000000000000000000000000000000000000008416611ec7565b7f000000000000000000000000000000000000000000000000000000000000000016803b1561058a5760405163d203a5dd60e01b8152336004820152602481018490529082908290604490829084905af180156107b157610e06575b50506040519081527fd8138f8a3f377c5259ca548e70e4c2de94f129f5a11036a15b69513cba2b426a60203392a26001815580f35b610e0f90611b48565b61058a578138610dd1565b60405162461bcd60e51b81526020600482015260086024820152676e6f2d636c61696d60c01b6044820152606490fd5b50346101bc57806003193601126101bc576020600754604051908152f35b50346101bc5760203660031901126101bc576020610ac9610e87611b08565b611d1b565b50346101bc5760203660031901126101bc576020610ac9610eab611b08565b611c39565b50346101bc57806003193601126101bc576020600254604051908152f35b50346101bc5760203660031901126101bc576020906040906001600160a01b03610ef6611b08565b168152600a83522054604051908152f35b50346101bc57806003193601126101bc576020610ac9611c14565b5060c03660031901126101bc57610f37611b08565b67ffffffffffffffff60a4351161058a5736602360a43501121561058a5767ffffffffffffffff60a435600401351161058a5736602460a4356004013560a43501011161058a57610f86611ea4565b610f8e611b1e565b15611a83576064354211611a5457338252600a602052604082205460843503611a1f57338252600a6020526040822080546000198114611a0b576001019055604435151580611a00575b156119d55760037f00000000000000000000000000000000000000000000000000000000000000001015806102e3577f00000000000000000000000000000000000000000000000000000000000000006117a8576001600160a01b038216611774576024353403611747573415611715575b60405163f413bdb360e01b81526020816004817f00000000000000000000000000000000000000000000000000000000000000006001600160a01b03165afa908115610c885784916116f6575b506001600160a01b038116156116c55760405146602082015230604082015233606082015260018060a01b038416608082015260243560a082015260443560c082015260643560e08201526101006084358183015281528061012081011067ffffffffffffffff610120830111176116b15790816101206111979301604052602081519101207f19457468657265756d205369676e6564204d6573736167653a0a3332000000008652601c5261118e603c862061115960a43560040135611bd5565b906111676040519283611b94565b60a435600481013580845290602401602084013787602060a4356004013584010152611f0a565b90939193611f46565b6001600160a01b03908116911603611686576111b7604435600454611bf1565b7f00000000000000000000000000000000000000000000000000000000000000001061165b5733835260096020526040832060028101805460ff8116156114fa575b50506112086044358254611bf1565b9055611218604435600454611bf1565b6004556114e6577f000000000000000000000000000000000000000000000000000000000000000061144d5750611253602435600754611bf1565b6007555b7f00000000000000000000000000000000000000000000000000000000000000006001600160a01b03163b156101bc576040516366cd536160e11b815233600482015260448035602480840191909152359082015281908181606481837f00000000000000000000000000000000000000000000000000000000000000006001600160a01b03165af180156107b157611439575b5050604051602435815260443560208201527fa9a40dec7a304e5915d11358b968c1e8d365992abf20f82285d1df1b30c8e24c60403392a260035460ff8116158061140d575b61133e575b506001815580f35b60019060ff191617600355426002557f021ce919bcc9805dcbe7d8224210be686e7ca1320fcefd2e9933635af2bafd816020604051428152a17f00000000000000000000000000000000000000000000000000000000000000006001600160a01b03163b156101bc57604051639d5e7a3160e01b815281908181600481837f00000000000000000000000000000000000000000000000000000000000000006001600160a01b03165af180156107b1576113f9575b50611336565b61140290611b48565b6101bc5780386113f3565b507f00000000000000000000000000000000000000000000000000000000000000006004541015611331565b61144290611b48565b6101bc5780386112eb565b6040516323b872dd60e01b602082015233602482015230604482015260243560648201526064815260a081019080821067ffffffffffffffff8311176114d0576040919091526114a6906001600160a01b038316611fcb565b6001600160a01b0316815260086020526040812080546114c99060243590611bf1565b9055611257565b634e487b7160e01b600052604160045260246000fd5b634e487b7160e01b82526021600452602482fd5b60019060ff191617905560055460018101809111611647576005557f00000000000000000000000000000000000000000000000000000000000000006001600160a01b03163b1561162557604051628fec9160e11b81523360048201528481602481837f00000000000000000000000000000000000000000000000000000000000000006001600160a01b03165af1801561163c57611629575b507f00000000000000000000000000000000000000000000000000000000000000006001600160a01b03163b1561162557604051634375b12d60e11b815284908181600481837f00000000000000000000000000000000000000000000000000000000000000006001600160a01b03165af180156107b157156111f95761161a90611b48565b6116255783386111f9565b8380fd5b61163590949194611b48565b9238611594565b6040513d87823e3d90fd5b634e487b7160e01b85526011600452602485fd5b60405162461bcd60e51b815260206004820152600360248201526206361760ec1b6044820152606490fd5b60405162461bcd60e51b815260206004820152600360248201526273696760e81b6044820152606490fd5b634e487b7160e01b85526041600452602485fd5b60405162461bcd60e51b8152602060048201526009602482015268373796b9b4b3b732b960b91b6044820152606490fd5b61170f915060203d6020116109f1576109e38183611b94565b38611097565b60405162461bcd60e51b815260206004820152600a6024820152697a65726f2d76616c756560b01b6044820152606490fd5b60405162461bcd60e51b815260206004820152600560248201526476616c756560d81b6044820152606490fd5b60405162461bcd60e51b815260206004820152600c60248201526b3730ba34bb3296ba37b5b2b760a11b6044820152606490fd5b50817f00000000000000000000000000000000000000000000000000000000000000006001036118c157604051632f48ab7d60e01b81526020816004817f00000000000000000000000000000000000000000000000000000000000000006001600160a01b03165afa908115610c885784916118a2575b506001600160a01b0390811690831603611875573461183e575b61104a565b60405162461bcd60e51b815260206004820152600f60248201526e1b9bcb595d1a0b599bdc8b5d5cd91d608a1b6044820152606490fd5b60405162461bcd60e51b8152602060048201526005602482015264085d5cd91d60da1b6044820152606490fd5b6118bb915060203d6020116109f1576109e38183611b94565b3861181f565b508160027f00000000000000000000000000000000000000000000000000000000000000000361104a57604051634504ffb160e01b81526020816004817f00000000000000000000000000000000000000000000000000000000000000006001600160a01b03165afa908115610c885784916119b6575b506001600160a01b03908116908316036119895734156118395760405162461bcd60e51b815260206004820152600f60248201526e6e6f2d6574682d666f722d7573643160881b6044820152606490fd5b60405162461bcd60e51b8152602060048201526005602482015264217573643160d81b6044820152606490fd5b6119cf915060203d6020116109f1576109e38183611b94565b38611938565b606460405162461bcd60e51b81526020600482015260046024820152637a65726f60e01b6044820152fd5b506024351515610fd8565b634e487b7160e01b84526011600452602484fd5b60405162461bcd60e51b815260206004820152600d60248201526c696e76616c69642d6e6f6e636560981b6044820152606490fd5b60405162461bcd60e51b8152602060048201526007602482015266195e1c1a5c995960ca1b6044820152606490fd5b60405162461bcd60e51b8152602060048201526008602482015267696e61637469766560c01b6044820152606490fd5b50346101bc57806003193601126101bc576020610215611b1e565b90503461058a578160031936011261058a576020907f00000000000000000000000000000000000000000000000000000000000000008152f35b600435906001600160a01b038216820361029857565b60015442101580611b3d575b80611b325790565b5060ff600354161590565b506002544210611b2a565b67ffffffffffffffff81116114d057604052565b6080810190811067ffffffffffffffff8211176114d057604052565b6060810190811067ffffffffffffffff8211176114d057604052565b90601f8019910116810190811067ffffffffffffffff8211176114d057604052565b9081602091031261029857516001600160a01b03811681036102985790565b67ffffffffffffffff81116114d057601f01601f191660200190565b91908201809211611bfe57565b634e487b7160e01b600052601160045260246000fd5b611c1c611e8b565b15611c275760025490565b600090565b91908203918211611bfe57565b6001600160a01b031660009081526009602052604080822090519091611c5e82611b78565b60ff600284549485855260018101546020860152015416151560408301528215611d1557611c8a611c14565b8015611d0e5780421115611d0e577f0000000000000000000000000000000000000000000000000000000000000000938415611d065750611ccb9042611c2c565b9183831015611cfe5751828102928184041490151715611cea57500490565b634e487b7160e01b81526011600452602490fd5b925050505190565b935050505090565b5091505090565b91505090565b60018060a01b0381166000526009602052611d65604060002091604051611d4181611b78565b83548152604060ff6002600187015496602085019788520154161515910152611c39565b905180821115611d7b57611d7891611c2c565b90565b5050600090565b15611d8957565b60405162461bcd60e51b815260206004820152600560248201526437bbb732b960d91b6044820152606490fd5b15611dbd57565b60405162461bcd60e51b81526020600482015260096024820152681b9bdd0b595b99195960ba1b6044820152606490fd5b15611df557565b606460405162461bcd60e51b81526020600482015260046024820152630746f3d360e41b6044820152fd5b3d15611e4b573d90611e3182611bd5565b91611e3f6040519384611b94565b82523d6000602084013e565b606090565b15611e5757565b60405162461bcd60e51b815260206004820152600c60248201526b666163746f72792d6f6e6c7960a01b6044820152606490fd5b60ff600354168015611e9a5790565b5060025442101590565b600260005414611eb5576002600055565b604051633ee5aeb560e01b8152600490fd5b60405163a9059cbb60e01b60208201526001600160a01b03929092166024830152604480830193909352918152611f0891611f03606483611b94565b611fcb565b565b8151919060418303611f3b57611f3492506020820151906060604084015193015160001a90612033565b9192909190565b505060009160029190565b6004811015611fb55780611f58575050565b60018103611f725760405163f645eedf60e01b8152600490fd5b60028103611f935760405163fce698f760e01b815260048101839052602490fd5b600314611f9d5750565b602490604051906335e2f38360e21b82526004820152fd5b634e487b7160e01b600052602160045260246000fd5b906000602091828151910182855af115612027576000513d61201e57506001600160a01b0381163b155b611ffc5750565b604051635274afe760e01b81526001600160a01b039091166004820152602490fd5b60011415611ff5565b6040513d6000823e3d90fd5b91907f7fffffffffffffffffffffffffffffff5d576e7357a4501ddfe92f46681b20a084116120b757926020929160ff608095604051948552168484015260408301526060820152600092839182805260015afa156120ab5780516001600160a01b038116156120a257918190565b50809160019190565b604051903d90823e3d90fd5b5050506000916003919056fea2646970667358221220f35722c0098581142a8fe83897f21be7ffacff8a5aab6820c900a39589fdecd964736f6c63430008180033",
  "linkReferences": {},
  "deployedLinkReferences": {}
}